{
  "_format": "hh-sol-artifact-1",
  "contractName": "PinSave",
  "sourceName": "contracts/PinSave.sol",
  "abi": [
    {
      "inputs": [
        {
          "internalType": "string",
          "name": "_name",
          "type": "string"
        },
        {
          "internalType": "string",
          "name": "_symbol",
          "type": "string"
        },
        {
          "internalType": "address",
          "name": "_owner",
          "type": "address"
        }
      ],
      "stateMutability": "nonpayable",
      "type": "constructor"
    },
    {
      "inputs": [
        {
          "internalType": "address",
          "name": "sender",
          "type": "address"
        },
        {
          "internalType": "uint256",
          "name": "tokenId",
          "type": "uint256"
        },
        {
          "internalType": "address",
          "name": "owner",
          "type": "address"
        }
      ],
      "name": "ERC721IncorrectOwner",
      "type": "error"
    },
    {
      "inputs": [
        {
          "internalType": "address",
          "name": "operator",
          "type": "address"
        },
        {
          "internalType": "uint256",
          "name": "tokenId",
          "type": "uint256"
        }
      ],
      "name": "ERC721InsufficientApproval",
      "type": "error"
    },
    {
      "inputs": [
        {
          "internalType": "address",
          "name": "approver",
          "type": "address"
        }
      ],
      "name": "ERC721InvalidApprover",
      "type": "error"
    },
    {
      "inputs": [
        {
          "internalType": "address",
          "name": "operator",
          "type": "address"
        }
      ],
      "name": "ERC721InvalidOperator",
      "type": "error"
    },
    {
      "inputs": [
        {
          "internalType": "address",
          "name": "owner",
          "type": "address"
        }
      ],
      "name": "ERC721InvalidOwner",
      "type": "error"
    },
    {
      "inputs": [
        {
          "internalType": "address",
          "name": "receiver",
          "type": "address"
        }
      ],
      "name": "ERC721InvalidReceiver",
      "type": "error"
    },
    {
      "inputs": [
        {
          "internalType": "address",
          "name": "sender",
          "type": "address"
        }
      ],
      "name": "ERC721InvalidSender",
      "type": "error"
    },
    {
      "inputs": [
        {
          "internalType": "uint256",
          "name": "tokenId",
          "type": "uint256"
        }
      ],
      "name": "ERC721NonexistentToken",
      "type": "error"
    },
    {
      "anonymous": false,
      "inputs": [
        {
          "indexed": true,
          "internalType": "address",
          "name": "owner",
          "type": "address"
        },
        {
          "indexed": true,
          "internalType": "address",
          "name": "approved",
          "type": "address"
        },
        {
          "indexed": true,
          "internalType": "uint256",
          "name": "tokenId",
          "type": "uint256"
        }
      ],
      "name": "Approval",
      "type": "event"
    },
    {
      "anonymous": false,
      "inputs": [
        {
          "indexed": true,
          "internalType": "address",
          "name": "owner",
          "type": "address"
        },
        {
          "indexed": true,
          "internalType": "address",
          "name": "operator",
          "type": "address"
        },
        {
          "indexed": false,
          "internalType": "bool",
          "name": "approved",
          "type": "bool"
        }
      ],
      "name": "ApprovalForAll",
      "type": "event"
    },
    {
      "anonymous": false,
      "inputs": [
        {
          "indexed": true,
          "internalType": "address",
          "name": "from",
          "type": "address"
        },
        {
          "indexed": true,
          "internalType": "address",
          "name": "to",
          "type": "address"
        },
        {
          "indexed": true,
          "internalType": "uint256",
          "name": "tokenId",
          "type": "uint256"
        }
      ],
      "name": "Transfer",
      "type": "event"
    },
    {
      "inputs": [
        {
          "internalType": "address",
          "name": "to",
          "type": "address"
        },
        {
          "internalType": "uint256",
          "name": "tokenId",
          "type": "uint256"
        }
      ],
      "name": "approve",
      "outputs": [],
      "stateMutability": "nonpayable",
      "type": "function"
    },
    {
      "inputs": [
        {
          "internalType": "address",
          "name": "owner",
          "type": "address"
        }
      ],
      "name": "balanceOf",
      "outputs": [
        {
          "internalType": "uint256",
          "name": "",
          "type": "uint256"
        }
      ],
      "stateMutability": "view",
      "type": "function"
    },
    {
      "inputs": [],
      "name": "baseURI",
      "outputs": [
        {
          "internalType": "string",
          "name": "",
          "type": "string"
        }
      ],
      "stateMutability": "view",
      "type": "function"
    },
    {
      "inputs": [
        {
          "internalType": "uint256",
          "name": "id",
          "type": "uint256"
        }
      ],
      "name": "blockPost",
      "outputs": [],
      "stateMutability": "nonpayable",
      "type": "function"
    },
    {
      "inputs": [
        {
          "internalType": "uint256",
          "name": "newFee",
          "type": "uint256"
        }
      ],
      "name": "changeFee",
      "outputs": [],
      "stateMutability": "nonpayable",
      "type": "function"
    },
    {
      "inputs": [
        {
          "internalType": "address",
          "name": "to",
          "type": "address"
        },
        {
          "internalType": "string[]",
          "name": "_cid",
          "type": "string[]"
        }
      ],
      "name": "createBatchPosts",
      "outputs": [],
      "stateMutability": "nonpayable",
      "type": "function"
    },
    {
      "inputs": [
        {
          "internalType": "address",
          "name": "receiver",
          "type": "address"
        },
        {
          "internalType": "string",
          "name": "_cid",
          "type": "string"
        }
      ],
      "name": "createPost",
      "outputs": [],
      "stateMutability": "payable",
      "type": "function"
    },
    {
      "inputs": [
        {
          "internalType": "uint256",
          "name": "tokenId",
          "type": "uint256"
        }
      ],
      "name": "getApproved",
      "outputs": [
        {
          "internalType": "address",
          "name": "",
          "type": "address"
        }
      ],
      "stateMutability": "view",
      "type": "function"
    },
    {
      "inputs": [],
      "name": "getContractBalance",
      "outputs": [
        {
          "internalType": "uint256",
          "name": "",
          "type": "uint256"
        }
      ],
      "stateMutability": "view",
      "type": "function"
    },
    {
      "inputs": [
        {
          "internalType": "uint256",
          "name": "id",
          "type": "uint256"
        }
      ],
      "name": "getPostAuthor",
      "outputs": [
        {
          "internalType": "address",
          "name": "",
          "type": "address"
        }
      ],
      "stateMutability": "view",
      "type": "function"
    },
    {
      "inputs": [
        {
          "internalType": "uint256",
          "name": "id",
          "type": "uint256"
        }
      ],
      "name": "getPostCid",
      "outputs": [
        {
          "internalType": "string",
          "name": "",
          "type": "string"
        }
      ],
      "stateMutability": "view",
      "type": "function"
    },
    {
      "inputs": [
        {
          "internalType": "uint256",
          "name": "id",
          "type": "uint256"
        }
      ],
      "name": "getPostData",
      "outputs": [
        {
          "internalType": "address",
          "name": "",
          "type": "address"
        },
        {
          "internalType": "address",
          "name": "",
          "type": "address"
        },
        {
          "internalType": "string",
          "name": "",
          "type": "string"
        }
      ],
      "stateMutability": "view",
      "type": "function"
    },
    {
      "inputs": [
        {
          "internalType": "uint256",
          "name": "id",
          "type": "uint256"
        }
      ],
      "name": "getPostOwner",
      "outputs": [
        {
          "internalType": "address",
          "name": "",
          "type": "address"
        }
      ],
      "stateMutability": "view",
      "type": "function"
    },
    {
      "inputs": [
        {
          "internalType": "address",
          "name": "owner",
          "type": "address"
        },
        {
          "internalType": "address",
          "name": "operator",
          "type": "address"
        }
      ],
      "name": "isApprovedForAll",
      "outputs": [
        {
          "internalType": "bool",
          "name": "",
          "type": "bool"
        }
      ],
      "stateMutability": "view",
      "type": "function"
    },
    {
      "inputs": [
        {
          "internalType": "uint256",
          "name": "id",
          "type": "uint256"
        }
      ],
      "name": "isBlockedPost",
      "outputs": [
        {
          "internalType": "bool",
          "name": "",
          "type": "bool"
        }
      ],
      "stateMutability": "view",
      "type": "function"
    },
    {
      "inputs": [],
      "name": "isPostingBlocked",
      "outputs": [
        {
          "internalType": "bool",
          "name": "",
          "type": "bool"
        }
      ],
      "stateMutability": "view",
      "type": "function"
    },
    {
      "inputs": [],
      "name": "mintingFee",
      "outputs": [
        {
          "internalType": "uint256",
          "name": "",
          "type": "uint256"
        }
      ],
      "stateMutability": "view",
      "type": "function"
    },
    {
      "inputs": [],
      "name": "name",
      "outputs": [
        {
          "internalType": "string",
          "name": "",
          "type": "string"
        }
      ],
      "stateMutability": "view",
      "type": "function"
    },
    {
      "inputs": [],
      "name": "owner",
      "outputs": [
        {
          "internalType": "address",
          "name": "",
          "type": "address"
        }
      ],
      "stateMutability": "view",
      "type": "function"
    },
    {
      "inputs": [
        {
          "internalType": "uint256",
          "name": "tokenId",
          "type": "uint256"
        }
      ],
      "name": "ownerOf",
      "outputs": [
        {
          "internalType": "address",
          "name": "",
          "type": "address"
        }
      ],
      "stateMutability": "view",
      "type": "function"
    },
    {
      "inputs": [
        {
          "internalType": "uint256",
          "name": "",
          "type": "uint256"
        }
      ],
      "name": "postByTokenId",
      "outputs": [
        {
          "internalType": "string",
          "name": "cid",
          "type": "string"
        },
        {
          "internalType": "address",
          "name": "author",
          "type": "address"
        },
        {
          "internalType": "bool",
          "name": "excluded",
          "type": "bool"
        }
      ],
      "stateMutability": "view",
      "type": "function"
    },
    {
      "inputs": [
        {
          "internalType": "address",
          "name": "from",
          "type": "address"
        },
        {
          "internalType": "address",
          "name": "to",
          "type": "address"
        },
        {
          "internalType": "uint256",
          "name": "tokenId",
          "type": "uint256"
        }
      ],
      "name": "safeTransferFrom",
      "outputs": [],
      "stateMutability": "nonpayable",
      "type": "function"
    },
    {
      "inputs": [
        {
          "internalType": "address",
          "name": "from",
          "type": "address"
        },
        {
          "internalType": "address",
          "name": "to",
          "type": "address"
        },
        {
          "internalType": "uint256",
          "name": "tokenId",
          "type": "uint256"
        },
        {
          "internalType": "bytes",
          "name": "data",
          "type": "bytes"
        }
      ],
      "name": "safeTransferFrom",
      "outputs": [],
      "stateMutability": "nonpayable",
      "type": "function"
    },
    {
      "inputs": [
        {
          "internalType": "address",
          "name": "operator",
          "type": "address"
        },
        {
          "internalType": "bool",
          "name": "approved",
          "type": "bool"
        }
      ],
      "name": "setApprovalForAll",
      "outputs": [],
      "stateMutability": "nonpayable",
      "type": "function"
    },
    {
      "inputs": [
        {
          "internalType": "string",
          "name": "_baseURI",
          "type": "string"
        }
      ],
      "name": "setBaseURI",
      "outputs": [],
      "stateMutability": "nonpayable",
      "type": "function"
    },
    {
      "inputs": [
        {
          "internalType": "address",
          "name": "_owner",
          "type": "address"
        }
      ],
      "name": "setOwner",
      "outputs": [],
      "stateMutability": "nonpayable",
      "type": "function"
    },
    {
      "inputs": [
        {
          "internalType": "bytes4",
          "name": "interfaceId",
          "type": "bytes4"
        }
      ],
      "name": "supportsInterface",
      "outputs": [
        {
          "internalType": "bool",
          "name": "",
          "type": "bool"
        }
      ],
      "stateMutability": "view",
      "type": "function"
    },
    {
      "inputs": [],
      "name": "symbol",
      "outputs": [
        {
          "internalType": "string",
          "name": "",
          "type": "string"
        }
      ],
      "stateMutability": "view",
      "type": "function"
    },
    {
      "inputs": [
        {
          "internalType": "uint256",
          "name": "tokenId",
          "type": "uint256"
        }
      ],
      "name": "tokenURI",
      "outputs": [
        {
          "internalType": "string",
          "name": "",
          "type": "string"
        }
      ],
      "stateMutability": "view",
      "type": "function"
    },
    {
      "inputs": [],
      "name": "totalSupply",
      "outputs": [
        {
          "internalType": "uint256",
          "name": "",
          "type": "uint256"
        }
      ],
      "stateMutability": "view",
      "type": "function"
    },
    {
      "inputs": [
        {
          "internalType": "address",
          "name": "from",
          "type": "address"
        },
        {
          "internalType": "address",
          "name": "to",
          "type": "address"
        },
        {
          "internalType": "uint256",
          "name": "tokenId",
          "type": "uint256"
        }
      ],
      "name": "transferFrom",
      "outputs": [],
      "stateMutability": "nonpayable",
      "type": "function"
    },
    {
      "inputs": [],
      "name": "withdrawFees",
      "outputs": [],
      "stateMutability": "nonpayable",
      "type": "function"
    }
  ],
  "bytecode": "0x608060405234801561001057600080fd5b506040516123f33803806123f383398101604081905261002f91610156565b8282600061003d838261026a565b50600161004a828261026a565b50506006805462010000600160b01b031916620100006001600160a01b0385160217905550604080516060810190915260228082526123d16020830139600890610094908261026a565b50505050610328565b634e487b7160e01b600052604160045260246000fd5b600082601f8301126100c457600080fd5b81516001600160401b038111156100dd576100dd61009d565b604051601f8201601f19908116603f011681016001600160401b038111828210171561010b5761010b61009d565b60405281815283820160200185101561012357600080fd5b60005b8281101561014257602081860181015183830182015201610126565b506000918101602001919091529392505050565b60008060006060848603121561016b57600080fd5b83516001600160401b0381111561018157600080fd5b61018d868287016100b3565b602086015190945090506001600160401b038111156101ab57600080fd5b6101b7868287016100b3565b604086015190935090506001600160a01b03811681146101d657600080fd5b809150509250925092565b600181811c908216806101f557607f821691505b60208210810361021557634e487b7160e01b600052602260045260246000fd5b50919050565b601f82111561026557806000526020600020601f840160051c810160208510156102425750805b601f840160051c820191505b81811015610262576000815560010161024e565b50505b505050565b81516001600160401b038111156102835761028361009d565b6102978161029184546101e1565b8461021b565b6020601f8211600181146102cb57600083156102b35750848201515b600019600385901b1c1916600184901b178455610262565b600084815260208120601f198516915b828110156102fb57878501518255602094850194600190920191016102db565b50848210156103195786840151600019600387901b60f8161c191681555b50505050600190811b01905550565b61209a806103376000396000f3fe6080604052600436106101e35760003560e01c80636352211e11610102578063a22cb46511610095578063ce92f16a11610064578063ce92f16a14610589578063d8ebd5ae146105a8578063e985e9c5146105c8578063fe7ec5a51461061157600080fd5b8063a22cb46514610509578063a56581df14610529578063b88d4fde14610549578063c87b56dd1461056957600080fd5b806370a08231116100d157806370a082311461048e5780637461cbda146104ae5780638da5cb5b146104ce57806395d89b41146104f457600080fd5b80636352211e146104265780636a1db1bf146104465780636c0360eb146104665780636f9fb98a1461047b57600080fd5b806318160ddd1161017a578063476343ee11610149578063476343ee146103ac5780634f8f0256146103c157806355f804b3146103f05780635a64ad951461041057600080fd5b806318160ddd1461032857806323b872dd1461034c57806342842e0e1461036c57806345c146711461038c57600080fd5b8063085f441f116101b6578063085f441f14610299578063095ea7b3146102b957806313af4035146102d957806316ebbe04146102f957600080fd5b806301dbd0f2146101e857806301ffc9a71461020a57806306fdde031461023f578063081812fc14610261575b600080fd5b3480156101f457600080fd5b5061020861020336600461191c565b610624565b005b34801561021657600080fd5b5061022a610225366004611a1a565b610661565b60405190151581526020015b60405180910390f35b34801561024b57600080fd5b506102546106fe565b6040516102369190611a87565b34801561026d57600080fd5b5061028161027c366004611a9a565b610790565b6040516001600160a01b039091168152602001610236565b3480156102a557600080fd5b506102816102b4366004611a9a565b6107b9565b3480156102c557600080fd5b506102086102d4366004611ab3565b6107c4565b3480156102e557600080fd5b506102086102f4366004611add565b6107d3565b34801561030557600080fd5b50610319610314366004611a9a565b610864565b60405161023693929190611af8565b34801561033457600080fd5b5061033e600b5481565b604051908152602001610236565b34801561035857600080fd5b50610208610367366004611b2b565b61091e565b34801561037857600080fd5b50610208610387366004611b2b565b6109bc565b34801561039857600080fd5b506102816103a7366004611a9a565b6109dc565b3480156103b857600080fd5b50610208610a94565b3480156103cd57600080fd5b506103e16103dc366004611a9a565b610ba5565b60405161023693929190611b68565b3480156103fc57600080fd5b5061020861040b366004611ba2565b610bd2565b34801561041c57600080fd5b5061033e60075481565b34801561043257600080fd5b50610281610441366004611a9a565b610c2a565b34801561045257600080fd5b50610208610461366004611a9a565b610c35565b34801561047257600080fd5b50610254610c86565b34801561048757600080fd5b504761033e565b34801561049a57600080fd5b5061033e6104a9366004611add565b610d14565b3480156104ba57600080fd5b5061022a6104c9366004611a9a565b610d75565b3480156104da57600080fd5b50600654610281906201000090046001600160a01b031681565b34801561050057600080fd5b50610254610e2e565b34801561051557600080fd5b50610208610524366004611bd7565b610e3d565b34801561053557600080fd5b50610254610544366004611a9a565b610e48565b34801561055557600080fd5b50610208610564366004611c13565b610f7e565b34801561057557600080fd5b50610254610584366004611a9a565b610f96565b34801561059557600080fd5b5060065461022a90610100900460ff1681565b3480156105b457600080fd5b506102086105c3366004611a9a565b610fd0565b3480156105d457600080fd5b5061022a6105e3366004611c8f565b6001600160a01b03918216600090815260056020908152604080832093909416825291909152205460ff1690565b61020861061f366004611cc2565b61106b565b805160005b81811461065b576106538484838151811061064657610646611d10565b602002602001015161106b565b600101610629565b50505050565b60006001600160e01b031982167f80ac58cd0000000000000000000000000000000000000000000000000000000014806106c457506001600160e01b031982167f5b5e139f00000000000000000000000000000000000000000000000000000000145b806106f857507f01ffc9a7000000000000000000000000000000000000000000000000000000006001600160e01b03198316145b92915050565b60606000805461070d90611d26565b80601f016020809104026020016040519081016040528092919081815260200182805461073990611d26565b80156107865780601f1061075b57610100808354040283529160200191610786565b820191906000526020600020905b81548152906001019060200180831161076957829003601f168201915b5050505050905090565b600061079b8261123b565b506000828152600460205260409020546001600160a01b03166106f8565b60006106f882610c2a565b6107cf828233611274565b5050565b6006546201000090046001600160a01b031633146108245760405162461bcd60e51b81526020600482015260096024820152682737ba1027bbb732b960b91b60448201526064015b60405180910390fd5b600680546001600160a01b0390921662010000027fffffffffffffffffffff0000000000000000000000000000000000000000ffff909216919091179055565b600c6020526000908152604090208054819061087f90611d26565b80601f01602080910402602001604051908101604052809291908181526020018280546108ab90611d26565b80156108f85780601f106108cd576101008083540402835291602001916108f8565b820191906000526020600020905b8154815290600101906020018083116108db57829003601f168201915b505050600190930154919250506001600160a01b0381169060ff600160a01b9091041683565b6001600160a01b03821661094857604051633250574960e11b81526000600482015260240161081b565b6000610955838333611281565b9050836001600160a01b0316816001600160a01b03161461065b576040517f64283d7b0000000000000000000000000000000000000000000000000000000081526001600160a01b038086166004830152602482018490528216604482015260640161081b565b6109d783838360405180602001604052806000815250610f7e565b505050565b6006546000906201000090046001600160a01b0316331480610a285750600c6000610a08600185611d76565b8152602081019190915260400160002060010154600160a01b900460ff16155b610a625760405162461bcd60e51b815260206004820152600b60248201526a139bdd08105b1b1bddd95960aa1b604482015260640161081b565b600c6000610a71600185611d76565b81526020810191909152604001600020600101546001600160a01b031692915050565b6006546201000090046001600160a01b03163314610af45760405162461bcd60e51b815260206004820152601c60248201527f4f6e6c792061646d696e2063616e207769746864726177206665657300000000604482015260640161081b565b6006546040514791600091620100009091046001600160a01b031690839060006040518083038185875af1925050503d8060008114610b4f576040519150601f19603f3d011682016040523d82523d6000602084013e610b54565b606091505b50509050806107cf5760405162461bcd60e51b815260206004820152601360248201527f4661696c656420746f2073656e64206665657300000000000000000000000000604482015260640161081b565b6000806060610bb3846107b9565b610bbc856109dc565b610bc586610e48565b9250925092509193909250565b6006546201000090046001600160a01b03163314610c1e5760405162461bcd60e51b81526020600482015260096024820152682737ba1027bbb732b960b91b604482015260640161081b565b60086107cf8282611dd0565b60006106f88261123b565b6006546201000090046001600160a01b03163314610c815760405162461bcd60e51b81526020600482015260096024820152682737ba1027bbb732b960b91b604482015260640161081b565b600755565b60088054610c9390611d26565b80601f0160208091040260200160405190810160405280929190818152602001828054610cbf90611d26565b8015610d0c5780601f10610ce157610100808354040283529160200191610d0c565b820191906000526020600020905b815481529060010190602001808311610cef57829003601f168201915b505050505081565b60006001600160a01b038216610d59576040517f89c62b640000000000000000000000000000000000000000000000000000000081526000600482015260240161081b565b506001600160a01b031660009081526003602052604090205490565b6006546000906201000090046001600160a01b0316331480610dc15750600c6000610da1600185611d76565b8152602081019190915260400160002060010154600160a01b900460ff16155b610dfb5760405162461bcd60e51b815260206004820152600b60248201526a139bdd08105b1b1bddd95960aa1b604482015260640161081b565b600c6000610e0a600185611d76565b8152602081019190915260400160002060010154600160a01b900460ff1692915050565b60606001805461070d90611d26565b6107cf338383611387565b6006546060906201000090046001600160a01b0316331480610e945750600c6000610e74600185611d76565b8152602081019190915260400160002060010154600160a01b900460ff16155b610ece5760405162461bcd60e51b815260206004820152600b60248201526a139bdd08105b1b1bddd95960aa1b604482015260640161081b565b600c6000610edd600185611d76565b81526020019081526020016000206000018054610ef990611d26565b80601f0160208091040260200160405190810160405280929190818152602001828054610f2590611d26565b8015610f725780601f10610f4757610100808354040283529160200191610f72565b820191906000526020600020905b815481529060010190602001808311610f5557829003601f168201915b50505050509050919050565b610f8984848461091e565b61065b338585858561143f565b60606000610fa383610e48565b9050600881604051602001610fb9929190611e92565b604051602081830303815290604052915050919050565b6006546201000090046001600160a01b031633146110305760405162461bcd60e51b815260206004820152600960248201527f464f5242494444454e0000000000000000000000000000000000000000000000604482015260640161081b565b6001600c60006110408385611d76565b815260200190815260200160002060010160146101000a81548160ff02191690831515021790555050565b60065460ff16156110be5760405162461bcd60e51b815260206004820152600e60248201527f4e6f2072652d656e7472616e6379000000000000000000000000000000000000604482015260640161081b565b6006805460ff1916600117905560075434101561111d5760405162461bcd60e51b815260206004820152601060248201527f496e73756666696369656e742066656500000000000000000000000000000000604482015260640161081b565b60096111298282611dd0565b50600a805460065460ff610100909104161515600160a01b027fffffffffffffffffffffff00ffffffffffffffffffffffffffffffffffffffff331674ffffffffffffffffffffffffffffffffffffffffff1990921691909117179055600b546000908152600c60205260409020600990806111a58382611f18565b50600191820180549190920180546001600160a01b0390921673ffffffffffffffffffffffffffffffffffffffff19831681178255925474ffffffffffffffffffffffffffffffffffffffffff19909216909217600160a01b9182900460ff161515909102179055600b805461122d91849160009061122390611fed565b918290555061156a565b50506006805460ff19169055565b6000818152600260205260408120546001600160a01b0316806106f857604051637e27328960e01b81526004810184905260240161081b565b6109d783838360016115e8565b6000828152600260205260408120546001600160a01b03908116908316156112ae576112ae818486611733565b6001600160a01b038116156112ec576112cb6000856000806115e8565b6001600160a01b038116600090815260036020526040902080546000190190555b6001600160a01b0385161561131b576001600160a01b0385166000908152600360205260409020805460010190555b600084815260026020526040808220805473ffffffffffffffffffffffffffffffffffffffff19166001600160a01b0389811691821790925591518793918516917fddf252ad1be2c89b69c2b068fc378daa952ba7f163c4a11628f55a4df523b3ef91a4949350505050565b6001600160a01b0382166113d2576040517f5b08ba180000000000000000000000000000000000000000000000000000000081526001600160a01b038316600482015260240161081b565b6001600160a01b03838116600081815260056020908152604080832094871680845294825291829020805460ff191686151590811790915591519182527f17307eab39ab6107e8899845ad3d59bd9653f200f220920489ca2b5937696c31910160405180910390a3505050565b6001600160a01b0383163b1561156357604051630a85bd0160e11b81526001600160a01b0384169063150b7a0290611481908890889087908790600401612006565b6020604051808303816000875af19250505080156114bc575060408051601f3d908101601f191682019092526114b991810190612047565b60015b611525573d8080156114ea576040519150601f19603f3d011682016040523d82523d6000602084013e6114ef565b606091505b50805160000361151d57604051633250574960e11b81526001600160a01b038516600482015260240161081b565b805181602001fd5b6001600160e01b03198116630a85bd0160e11b1461156157604051633250574960e11b81526001600160a01b038516600482015260240161081b565b505b5050505050565b6001600160a01b03821661159457604051633250574960e11b81526000600482015260240161081b565b60006115a283836000611281565b90506001600160a01b038116156109d7576040517f73c6ac6e0000000000000000000000000000000000000000000000000000000081526000600482015260240161081b565b80806115fc57506001600160a01b03821615155b156116f657600061160c8461123b565b90506001600160a01b038316158015906116385750826001600160a01b0316816001600160a01b031614155b801561166a57506001600160a01b0380821660009081526005602090815260408083209387168352929052205460ff16155b156116ac576040517fa9fbf51f0000000000000000000000000000000000000000000000000000000081526001600160a01b038416600482015260240161081b565b81156116f45783856001600160a01b0316826001600160a01b03167f8c5be1e5ebec7d5bd14f71427d1e84f3dd0314c0f7b2291e5b200ac8c7c3b92560405160405180910390a45b505b50506000908152600460205260409020805473ffffffffffffffffffffffffffffffffffffffff19166001600160a01b0392909216919091179055565b61173e8383836117b0565b6109d7576001600160a01b03831661176c57604051637e27328960e01b81526004810182905260240161081b565b6040517f177e802f0000000000000000000000000000000000000000000000000000000081526001600160a01b03831660048201526024810182905260440161081b565b60006001600160a01b0383161580159061182e5750826001600160a01b0316846001600160a01b0316148061180a57506001600160a01b0380851660009081526005602090815260408083209387168352929052205460ff165b8061182e57506000828152600460205260409020546001600160a01b038481169116145b949350505050565b80356001600160a01b038116811461184d57600080fd5b919050565b634e487b7160e01b600052604160045260246000fd5b604051601f8201601f1916810167ffffffffffffffff8111828210171561189157611891611852565b604052919050565b60008067ffffffffffffffff8411156118b4576118b4611852565b50601f8301601f19166020016118c981611868565b9150508281528383830111156118de57600080fd5b828260208301376000602084830101529392505050565b600082601f83011261190657600080fd5b61191583833560208501611899565b9392505050565b6000806040838503121561192f57600080fd5b61193883611836565b9150602083013567ffffffffffffffff81111561195457600080fd5b8301601f8101851361196557600080fd5b803567ffffffffffffffff81111561197f5761197f611852565b8060051b61198f60208201611868565b918252602081840181019290810190888411156119ab57600080fd5b6020850192505b838310156119f257823567ffffffffffffffff8111156119d157600080fd5b6119e08a6020838901016118f5565b835250602092830192909101906119b2565b80955050505050509250929050565b6001600160e01b031981168114611a1757600080fd5b50565b600060208284031215611a2c57600080fd5b813561191581611a01565b60005b83811015611a52578181015183820152602001611a3a565b50506000910152565b60008151808452611a73816020860160208601611a37565b601f01601f19169290920160200192915050565b6020815260006119156020830184611a5b565b600060208284031215611aac57600080fd5b5035919050565b60008060408385031215611ac657600080fd5b611acf83611836565b946020939093013593505050565b600060208284031215611aef57600080fd5b61191582611836565b606081526000611b0b6060830186611a5b565b6001600160a01b0394909416602083015250901515604090910152919050565b600080600060608486031215611b4057600080fd5b611b4984611836565b9250611b5760208501611836565b929592945050506040919091013590565b6001600160a01b03841681526001600160a01b0383166020820152606060408201526000611b996060830184611a5b565b95945050505050565b600060208284031215611bb457600080fd5b813567ffffffffffffffff811115611bcb57600080fd5b61182e848285016118f5565b60008060408385031215611bea57600080fd5b611bf383611836565b915060208301358015158114611c0857600080fd5b809150509250929050565b60008060008060808587031215611c2957600080fd5b611c3285611836565b9350611c4060208601611836565b925060408501359150606085013567ffffffffffffffff811115611c6357600080fd5b8501601f81018713611c7457600080fd5b611c8387823560208401611899565b91505092959194509250565b60008060408385031215611ca257600080fd5b611cab83611836565b9150611cb960208401611836565b90509250929050565b60008060408385031215611cd557600080fd5b611cde83611836565b9150602083013567ffffffffffffffff811115611cfa57600080fd5b611d06858286016118f5565b9150509250929050565b634e487b7160e01b600052603260045260246000fd5b600181811c90821680611d3a57607f821691505b602082108103611d5a57634e487b7160e01b600052602260045260246000fd5b50919050565b634e487b7160e01b600052601160045260246000fd5b818103818111156106f8576106f8611d60565b601f8211156109d757806000526020600020601f840160051c81016020851015611db05750805b601f840160051c820191505b818110156115635760008155600101611dbc565b815167ffffffffffffffff811115611dea57611dea611852565b611dfe81611df88454611d26565b84611d89565b6020601f821160018114611e355760008315611e1a5750848201515b600184901b600019600386901b1c198216175b855550611563565b600084815260208120601f198516915b82811015611e655787850151825560209485019460019092019101611e45565b5084821015611e835786840151600019600387901b60f8161c191681555b50505050600190811b01905550565b6000808454611ea081611d26565b600182168015611eb75760018114611ecc57611efc565b60ff1983168652811515820286019350611efc565b87600052602060002060005b83811015611ef457815488820152600190910190602001611ed8565b505081860193505b5050508351611f0f818360208801611a37565b01949350505050565b818103611f23575050565b611f2d8254611d26565b67ffffffffffffffff811115611f4557611f45611852565b611f5381611df88454611d26565b6000601f821160018114611f855760008315611e1a575081850154600184901b600019600386901b1c19821617611e2d565b600085815260209020601f19841690600086815260209020845b83811015611fbf5782860154825560019586019590910190602001611f9f565b5085831015611fdd5781850154600019600388901b60f8161c191681555b5050505050600190811b01905550565b600060018201611fff57611fff611d60565b5060010190565b6001600160a01b03851681526001600160a01b038416602082015282604082015260806060820152600061203d6080830184611a5b565b9695505050505050565b60006020828403121561205957600080fd5b815161191581611a0156fea2646970667358221220919ebd473131750130197ce805444e403af180657c9ff330e92a9103bcfde16c64736f6c634300081c003368747470733a2f2f676174657761792e70696e6174612e636c6f75642f697066732f",
  "linkReferences": {},
  "deployedLinkReferences": {}
}